:020000040800F2
:100000009006002099010008A1010008A301000842
:10001000A5010008A7010008A901000800000000D0
:10002000000000000000000000000000AB0100081C
:10003000AD01000800000000AF010008B101000898
:10004000B3010008B3010008B3010008B3010008C0
:10005000B3010008B3010008B5070008B3010008A8
:10006000B3010008B3010008B3010008B3010008A0
:10007000B3010008B3010008B3010008B301000890
:10008000B3010008B3010008B3010008B301000880
:10009000B3010008B3010008B3010008B301000870
:1000A000B3010008B3010008B3010008B301000860
:1000B000B3010008B3010008B3010008B301000850
:1000C000B3010008B3010008B3010008B301000840
:1000D000B301000845090008B3010008B301000896
:1000E000B3010008B3010008B301000800F002F8F2
:1000F00000F043F80AA090E8000C82448344AAF17F
:100100000107DA4501D100F038F8AFF2090EBAE87C
:100110000F0013F0010F18BFFB1A43F0010318473B
:100120009C100000BC100000103A24BF78C878C1B1
:10013000FAD8520724BF30C830C144BF04680C60ED
:10014000704700000023002400250026103A28BF35
:1001500078C1FBD8520728BF30C148BF0B60704739
:10016000782900F0CB80002070471FB59DE8030080
:1001700000F0CAF91FBD10B510BD00F099FA114684
:10018000FFF7F3FF00F0D4FE00F0B7FA03B4FFF777
:10019000F2FF03BC00F0E8FA09488047094800472D
:1001A000FEE7FEE7FEE7FEE7FEE7FEE7FEE7FEE727
:1001B000FEE7FEE704480549054A064B7047000084
:1001C000E5080008ED0000089000002090060020DF
:1001D000900200209002002070B5064600F078F9E9
:1001E000056806F10B0020F00704B4429CBF002014
:1001F00070BD2B466A68BAB11068A04210D304F1F2
:10020000080188423CBF5068586007D351681019F4
:1002100041601168091B016058601460101D70BDB9
:1002200013465268002AE7D12146284600F058F9C3
:100230000028DED170BD70B50446051F00F048F9F6
:100240000068002C14BF446870BD002C18BFAC427D
:100250003CBF20466468F8D301680A18AA4218BF58
:10026000456003D12A680546114401602868411998
:10027000A1421CBF6C6070BD616869602168084460
:10028000286070BD0FB41CB5074B06AA7B446946B5
:100290000090059800F0CDF90020694600F0DCF9E7
:1002A0001CBC5DF814FB0000C903000070B50446D7
:1002B00085690068C10601D5302600E02026C00708
:1002C00007D070BDD4E9012130469047206A401C18
:1002D00020626D1EF6D570BD70B504468569007844
:1002E000C00707D170BDD4E9012120209047206AC2
:1002F000401C20626D1EF6D570BD000070B504462E
:100300000D4621461068AFF300802188090502D50B
:100310000F4A7A4402E00E4A7A440E32002104F178
:10032000240305E000F00F060009965D5E54491CA9
:100330000028F7D120780023000704D5702D02D0C3
:1003400009B1022311322046BDE8704000F012B915
:10035000160E00002DE9F05F894604464FF0000AB2
:10036000DFF824B1FB44C0F820A02046E1688847AC
:1003700000287DD0252806D0D4E901219047206AA5
:10038000401C2062F1E700255F462046E16888476F
:100390002028064607DB312E05D2B81910F8200CAC
:1003A00008B10543F1E7A80701D525F00405C4F815
:1003B0001CA00027C4F818A02A2E09D0304600F04F
:1003C000C2FA38B304EB8708303EC8F8186019E069
:1003D00059F8041B204604EB87029161E1688847C5
:1003E000012F064618D1E069002820DA25F0200503
:1003F0001DE0D8F8180000EB800006EB4000303814
:10040000C8F818002046E1688847064600F09BFAC5
:100410000028EED1012F0AD02E2E08D12046E16807
:1004200088477F1C0646022F45F02005C4DBA069E3
:10043000002803DA404245F00105A061E80701D039
:1004400025F01005A6B1A6F14100192802D82036E2
:1004500045F400654A463146204625604D46FFF783
:100460007FFE60B1012807D0ED1D25F0070000E0F8
:1004700007E000F1080978E705F1040975E730465F
:100480007AE7206ABDE8F09FEC0D000010B5431C30
:1004900002E010F8011B71B18107FAD14FF001326F
:1004A00002C88C1A8C4314EAC211F9D0C01A0A0689
:1004B00003D0C01E10BDC01A10BD0A0401D0801E9A
:1004C00010BD0902FCD0401E10BD70477047704738
:1004D00000487047380000207047704770477047E9
:1004E00038B504460A4600206946AFF3008000286C
:1004F00008BF38BD02460099204600F0B7F8012039
:1005000038BD012000F0CCB8F8B5AFF30080054647
:1005100000200C46102000BF0646A819A0420DD9A5
:10052000324669460020AFF30080070008BF00F0A4
:10053000B7F80098A04218BF0546C419FFF7C8FFD6
:1005400005600746F01D20F007004619284600F018
:100550000AF8B44208BFF8BDA21B31463868BDE8AE
:10056000F84000F083B800210160C0E90110704735
:10057000102070472DE9F0470D46994692460446F3
:1005800000F124080168880604D5E06921F0100113
:10059000216000E00120A84201DD471B00E00027A8
:1005A000A1697A1902EB0900081AA0612078C00637
:1005B00002D42046FFF77AFE002608E0D4E90121A4
:1005C0001AF806009047206A401C761C20624E45AF
:1005D000F4DB2078C0060AD52046FFF767FE06E068
:1005E000D4E9012130209047206A401C2062381E47
:1005F000A7F10107F4DC07E0D4E9012118F80500B0
:100600009047206A401C2062281EA5F10105F3DCFA
:100610002046FFF761FE2078000602D50220BDE8E3
:10062000F0870120FBE7000001694A1C026108789D
:10063000704700B58FB0CDE9013100210591054922
:100640007944CDE9031011466846FFF783FE0FB0E9
:1006500000BD0000E5FFFFFF0A6802F8010B0A6019
:100660007047000000487047300000200346406893
:100670008C46002818BF88423CBF03464068F8D328
:1006800018681844884207D00CF1030020F00700D6
:10069000001D411A521A0146081D0A60FFF7CBBD22
:1006A00010B500F039F8BDE8104000F02FB87047E1
:1006B0007546FFF7D7FFAE4605006946534620F062
:1006C0000700854618B020B5FFF774FDBDE820404F
:1006D0004FF000064FF000074FF000084FF0000BFE
:1006E00021F00701AC46ACE8C009ACE8C009ACE8B1
:1006F000C009ACE8C0098D46704710B50446AFF399
:1007000000802046BDE81040FFF740BD002801D022
:1007100000F02AB87047000010B5012805D000216C
:1007200003A000F027F8012010BD09A1F8E70000A0
:1007300053494752544D454D3A204F7574206F66CA
:100740002068656170206D656D6F72790000000032
:100750003A2048656170206D656D6F727920636F16
:10076000727275707465640001491820ABBEFEE7B3
:100770002600020070B505460C460A2000E06D1CFC
:1007800000F011F835B128780028F8D102E0641C97
:1007900000F009F814B120780028F8D1BDE87040C5
:1007A0000A20AFF3008008B569468DF800000320E9
:1007B000ABBE08BD10B51048006840F001000E49FE
:1007C000086080221B21052000F0D6FA40221C215F
:1007D000052000F0D1FA094800F033FA074800F08C
:1007E000B3FB0649086AFFF726FD80221B2104207F
:1007F00000F0C2FA10BD0000140401400C000020FB
:1008000010B500F001F810BD0CB50020019000906B
:100810003248006840F480303049086000BF2F48FB
:10082000006800F4003000900198401C019000988E
:1008300018B90198B0F5A06FF1D12848006800F40C
:10084000003010B10120009001E0002000900098DD
:10085000012841D12248006840F01000204908607A
:100860000846006820F00300086008460068086039
:100870001A48406819494860084640684860084678
:10088000406840F4806048600846406820F47C106E
:1008900048600846406840F45020486008460068B8
:1008A00040F08070086000BF0C48006800F00070E5
:1008B0000028F9D00948406820F003000749486043
:1008C0000846406840F00200486000BF03484068A6
:1008D00000F00C000828F9D10CBD00000010024007
:1008E0000020024010B51348006840F00100114993
:1008F000086008464068104908400E4948600846AC
:1009000000680E4908400B4908600846006820F45A
:10091000802008600846406820F4FE0048604FF4DC
:100920001F008860FFF76CFF4FF00060044908600B
:1009300010BD0000001002400000FFF8FFFFF6FEAF
:1009400008ED00E0704730380A2801D201207047D6
:100950000020704730B500221F21072000F00CFA5C
:1009600000BF00221D21104600F0C6F800F0010073
:100970000028F6D000221D21104600F0BDF80546E3
:1009800003221F21052000F0F7F900221F21042077
:1009900000F0F2F940F6FE71082000F04EFA41F640
:1009A000FF710A2000F049FA40F6FE710C2000F0B9
:1009B00044FA03221F21052000F0DEF901221F2145
:1009C000042000F0D9F900221F21104600F094F80D
:1009D0000546A3221821022000F0CEF9002218219A
:1009E000104600F089F8054603221F21052000F07B
:1009F000C3F902221F21042000F0BEF90D220021BC
:100A0000022000F0B9F933220221084600F0B4F9BF
:100A100000220221104600F06FF8054680220321D3
:100A2000022000F0A9F940F2DC510A2000F005FA9A
:100A300015220421022000F09FF912220621022033
:100A400000F09AF903221F21052000F095F90322F6
:100A50001F21042000F090F926480278042102208A
:100A600000F08AF9234842780521022000F084F939
:100A7000204882780221084600F07EF91D48C2789D
:100A80000321022000F078F91A480279002102209F
:100A900000F072F9174842790121022000F06CF948
:100AA00000220121104600F027F805464FF480711E
:100AB000002000F097F9002000F06AF804464FF497
:100AC0008071102000F08EF9C0221B21022000F05E
:100AD00053F900221B21104600F00EF80546402273
:100AE0001C21052000F048F904221F21104600F0C7
:100AF00043F930BD0000002030B50346234C248864
:100B000044F04004214D2C800C4663F35F14AC810B
:100B100000BF1E4C248904F00204002CF9D00024EC
:100B20001A4DAC8100BF194C248904F00204002C3A
:100B3000F9D000BF154C248904F00104002CF9D031
:100B4000124CA489E0B29AB90024104DAC8100BFC8
:100B50000E4C248904F00204002CF9D000BF0B4C89
:100B6000248904F00104002CF9D0084CA489E0B2D7
:100B700000BF064C248904F08004002CF9D1034CFA
:100B8000248824F04004014D2C8030BD0030014009
:100B900030B5044603221F21052000F0EDF80222A3
:100BA0001F21042000F0E8F822461421022000F062
:100BB000E3F801221221022000F0DEF803221F21B7
:100BC000052000F0D9F803221F21042000F0D4F8FA
:100BD00000BF00220A211046FFF78EFF00F001003F
:100BE0000028F6D103221F21052000F0C5F80222BB
:100BF0001F21042000F0C0F8002212211046FFF748
:100C00007BFF054625F001052A461221022000F04F
:100C1000B3F80021182000F001F830BD70B504468B
:100C20000D462A4621460020FFF766FF0646601C57
:100C3000C1B22A460020FFF75FFF46EA0026304691
:100C400070BD70B5044603221F21052000F094F802
:100C500001221F21042000F08FF8002219211046E4
:100C6000FFF74AFF0646002E7DD080221E21042079
:100C700000F082F800221A210120FFF73DFFA08139
:100C800000221A210120FFF737FFA18941EA002045
:100C9000A081002508E000221A210120FFF72CFF87
:100CA000E11D4855681C85B2042DF4DBE179207AFA
:100CB00001EB0020E081E0890E38E081002509E0A9
:100CC00000221A210120FFF717FF04F110014855F7
:100CD000681C85B2062DF3DB002509E000221A21ED
:100CE0000120FFF709FF04F116014855681C85B281
:100CF000062DF3DB00221A210120FFF7FDFEA08361
:100D0000A08B4FF47F4101EA0020A08300221A212A
:100D10000120FFF7F1FEA18B0843A083E089FFF7D4
:100D20005BFA2062002508E000221A210120FFF76B
:100D3000E3FE216A4855681C85B2E089A842F3DCCD
:100D400080221E21052000F017F840221E210420D9
:100D500000F012F803221F21052000F00DF80022F8
:100D60001F21042000E005E000F006F8A1890C2016
:100D700000F063F870BD000070B5194D2D8845F086
:100D80004005174E35800D4660F35F15B58100BFF5
:100D9000134D2D8905F00205002DF9D0104DAD89B8
:100DA000ECB20F4D2B8907280CD0AA8100BF0C4D47
:100DB0002D8905F00205002DF9D0094DAD89ECB261
:100DC000074D2B8900BF064D2D8905F08005002DAC
:100DD000F9D1034D2D8825F04005014E358070BDB9
:100DE0000030014030B504460D4603221F21052086
:100DF000FFF7C2FF02221F210420FFF7BDFF22469A
:100E000014210220FFF7B8FF2946162000F015F83C
:100E100003221F210520FFF7AFFF03221F2104201B
:100E2000FFF7AAFF00BF00220A211046FFF764FE69
:100E300000F001000028F6D130BD30B504460D4663
:100E4000EAB221460220FFF797FF2A12601CC1B2C6
:100E50000220FFF791FF30BD10B52448806940F0B3
:100E60000400224988610846806940F001008861D9
:100E70001F48006820F00F001D4908600846006800
:100E800040F0080008601B48806820F00F001949F6
:100E900088600846806888601748006840F0010054
:100EA0001549086014480C30006840F001001249F0
:100EB0000C31086006200021002807DA0A07140E0A
:100EC0000E4A00F00F031B1FD45403E00A07130E51
:100ED0000B4A135400BF06200121814042099200B1
:100EE00002F1E022C2F8001100BF10BD0010024064
:100EF00000080140000001400004014018ED00E03E
:100F000000E400E00848806940F004000649886178
:100F10000648006820F47F600449086008460068BD
:100F200040F43B6008607047001002400408014034
:100F3000FFF7D8FCFFF790FF00F066F8FFF70AFD17
:100F400000F0A0F800BFFEE730B599B0044619A143
:100F50000CA8FFF797F90CA8FFF798FA85B2294675
:100F60000CA800F0BDF8A08B617D227DE37CCDE96B
:100F70000732CDE90910A17C607C227CE37ECDE9BB
:100F80000332CDE90501A07E617E227ECDE90021FC
:100F90000290E37DA27D0C490CA8FFF773F90CA821
:100FA000FFF774FA85B229460CA800F099F819B039
:100FB00030BD000065746865726E6574207265717D
:100FC000756573740D0A0000681100080B4880698C
:100FD00040F00100094988610846806940F004003A
:100FE00088610748006880B20549086008460068C3
:100FF000044908430249086070470000001002409D
:10100000000801400000BBBB10B5FFF7DFFF1B4825
:10101000806940F48050194988611948008820F09F
:101020003800174908800846008840F0080008800A
:101030000846008848F20341884311490880084661
:10104000008820F4006008800846008820F08000B6
:1010500008800846008820F40070088008468088D0
:1010600040F0040088800846008840F004000880B2
:101070000846008820F04000088010BD00100240A3
:101080000030014010B5FFF73DFF1348806940F480
:101090008040114988611148008840F400500F4990
:1010A00008800846008820F480500880081D0088C9
:1010B00020F44050091D08800848001F008840F0B7
:1010C000AE000649091F0880081D008840F00C008A
:1010D000091D088010BD0000001002400C380140BE
:1010E00010B5024600200CE0135C0F4C238000BFBB
:1010F0000D4B1B1F1B8803F08003002BF8D0431CF3
:1011000098B28842F0DB00BF074B1B1F1B8803F01F
:101110004003002BF8D0044B1B1F1B8823F0400317
:10112000014C241F238010BD04380140303132337C
:10113000343536373839414243444546403058000B
:10114000303132333435363738396162636465663D
:101150004030780004000008000000000000000299
:1011600000010000100000004D41433A20253032BC
:10117000583A253032583A253032583A25303258CC
:101180003A253032583A253032582D3E25303258E3
:101190003A253032583A253032583A253032583ACA
:1011A000253032583A253032583B2070726F743AED
:1011B0002025303458200D0A00000000DC11000802
:1011C000000000200C00000028010008E8110008C1
:1011D0000C0000208406000044010008001542BFF6
:0811E000F051C0A801C5000098
:04000005080000ED02
:00000001FF
